:020000041000EA
:1000000000B5324B212058609868022188439860DF
:10001000D860186158612E4B002199600221596106
:100020000121F02299502B49196001219960352056
:1000300000F044F80222904214D00621196600F024
:1000400034F8196E01211966002018661A6600F04E
:100050002CF8196E196E196E052000F02FF8012189
:100060000842F9D1002199601B49196000215960AB
:100070001A491B48016001219960EB211966A021F2
:10008000196600F012F800219960164914480160C1
:100090000121996001BC002800D000471248134993
:1000A000086003C880F30888084703B5996A0420EC
:1000B0000142FBD001200142F8D103BD02B5186610
:1000C0001866FFF7F2FF186E186E02BD00000240BE
:1000D000000000180000070000035F00212200005C
:1000E000F4000018222000A00001001008ED00E03C
:1000F00000000000000000000000000074B24E7A12
:1001000000200420F7010010C3010010C5010010F9
:10011000C1010010C1010010C1010010C101001097
:10012000C1010010C1010010C1010010C701001081
:10013000C1010010C1010010C9010010CB01001065
:10014000CD010010CD010010CD010010CD01001037
:10015000CD010010CD010010CD010010CD01001027
:10016000CD010010CD010010CD010010CD01001017
:10017000CD010010CD010010CD010010CD01001007
:10018000CD010010CD010010CD010010CD010010F7
:10019000CD010010CD010010CD010010CD010010E7
:1001A000CD010010CD010010CD010010CD010010D7
:1001B000CD010010CD010010CD010010CD010010C7
:1001C00000BE00BE00BE00BE00BE00BEEFF3058054
:1001D000103800BEF2EB887150810010748100105D
:1001E0003402001090A31AE700201F49086006C8D7
:1001F00081F3088810471D48006800282FD10DA4FE
:100200000ECC002902D000F012F8F9E71849194A7B
:10021000002000E001C19142FCD1174988471749ED
:1002200088471749884700BEFDE701C901C29A42C5
:10023000FBD3704774810010C000002078100020AC
:100240002C91001000000420000004202C910010CC
:10025000001004200010042000000000704709482E
:1002600003F064FA0047000008ED00E0000000D051
:10027000781000207C1F002079210010C503001099
:10028000CD2200105756000006005250ABB3605309
:10029000B07A001006005250861C0302C07A00108B
:1002A000060052505422A29DD87A001005005250E8
:1002B000DE65F4682C910010F8B5C0460648074981
:1002C000091A8B10C90FC91810B5491003D0044B77
:1002D000002B00D0984710BD781000207810002027
:1002E00000000000054B10B5002B03D00449054861
:1002F00000E000BFFFF7E2FF10BDC04600000000B5
:10030000081D00207878001010B50400042100F0CA
:100310000DFC094A01219446FF222407640FA30023
:100320001B199B0063441A611A6891438022520191
:100330001343196010BDC04600000540F0B5C64625
:10034000090200B5070706001948140003F020FA57
:1003500004F082F8804604F0A1F8C5B2280004F049
:100360007BF8011C404604F056F88321C90504F0CF
:100370006CF804F093F87F0FBB000E4ADB199B006A
:10038000C0B22D019A18284350600B4A944663442A
:10039000F6070BD5094924041A68624011408022EF
:1003A00052011343196080BCB846F0BD0449F3E71D
:1003B00040597307000005400C0005400000FFFF96
:1003C000FFFF0000F0B5DE46574645464E46E0B515
:1003D000CA4C5025A54402AF04F054FA002007F09F
:1003E0001BF806F0F5FF01F01DFB06F0F1FFC44914
:1003F000C44806F0B3FC03210E2000F097FB032154
:100400000F2000F093FB002201210E2000F0A6FB3C
:10041000002201210F2000F0A1FB00F00BFB1520B2
:10042000FFF772FF0A20FFF76FFFD024052000F0CE
:10043000A7FB20232406A36200220121052000F04F
:100440008DFB062000F09CFB402300220121A362CB
:10045000062000F083FB0B2000F092FB80231B01A1
:1004600063620D2000F08CFB80239B016362A64B2E
:1004700028243B65002378197B6500F0AFFA8022C1
:100480006319D2000021D81904F070F86319D81943
:10049000791900F0FBFA6019102200219B4BC0195A
:1004A00000F02CFB601920220021994BC01900F0AC
:1004B00025FB6319D819791900F0E8FA954801F07D
:1004C000FBF9954B601910220021C019FB6000F068
:1004D00015FB924B601920220021C019BB6000F06F
:1004E0000DFB8F4B601930220021C0197B6000F09A
:1004F00005FB6319D819791900F0C8FA894B7B629A
:10050000894B3B62894B3B64894BFB63894B7B6422
:10051000894BBB62894B3B61894B7B61894BFB619A
:10052000894BBB61894B9B46894BBB63894B7B6382
:100530006B46D0210122FB6209064B685B091A4217
:10054000FBD14B689B091A42F7D1FA202824502589
:10055000800001F0B1F9802263190021D200D8197E
:1005600004F004F86019102200217B6AC01900F021
:10057000C5FA6019202200213B6AC01900F0BEFABA
:100580006319D819791900F081FA734801F094F9C8
:1005900088B002AB99460123BB640023FB6401339E
:1005A00098465B4600243B6344E08023002D78D1CD
:1005B0001B017361FB6C69480133DBB2FB6404F01F
:1005C000DFF8424673689B091A4212D1D023802279
:1005D0001B0692015A6159464A4663001B19D154C1
:1005E00052464B4401345E485A709D70E4B204F0A8
:1005F000C7F80A2001F060F95A4B5B4A1B68FA20E1
:100600001B0C1B041360594B594A1B6880001B04C8
:100610001B0C1360D02380221B0612019A618022DA
:1006200092019A6101F048F9BB6C0133BB640B2B5A
:1006300000D19FE006F0D6FE062103F0D1F83B6C16
:1006400049005B5A9B4606F0CDFE052103F0C8F831
:10065000FB6B5B5C9A4606F0C5FE4246C30FC518AD
:100660001540ED1AEDB252465946002D41D00A20F0
:10067000FFF764FE7B6B00935A465346D026B96C55
:10068000786C04F0F3F83606424673685B091A4248
:100690008BD073689B091A4218D00A2001F00CF91C
:1006A000F2E74A4659469B01736163001B19D15416
:1006B00052464B445A709D70294804F061F84246F6
:1006C000736801349B09E4B21A4292D1012D00D023
:1006D0007CE7D02380221B0612015A61FB6C1F4865
:1006E0000133DBB2FB6404F04BF80A2001F0E4F8BC
:1006F00082E71520FFF722FEBB6BBCE77CFBFFFF08
:10070000801A0600100B0020007F00078078001080
:100710009078001010270000A0780010B07800102A
:10072000C0780010CC780010DC780010947B0010AA
:100730008C7B0010F0780010407900105879001080
:10074000B0790010C0790010D0790010E079001065
:100750007C78001078780010881300002C79001045
:100760003879001034000540341005407000054011
:10077000701005402825502080223B6B00219B46AD
:100780002B18D200D81903F0F1FE0826502030189B
:100790002021FB6CBA6AC01902F084FF5020331884
:1007A000281810220021DB19C01900F0A7F9002C2D
:1007B00000D09EE0502228239B18B918D81900F0C9
:1007C00065F9694801F078F80A22F96C386904F093
:1007D0004DF850252824644801F06EF880226319F2
:1007E0000021D200D81903F0C1FE601900220021B7
:1007F0007B69C01900F082F9601910220021FB69A1
:10080000C01900F07BF9601920220021BB69C019D2
:1008100000F074F9601930225B460021C01900F025
:100820006DF96319D819791900F030F94E4801F0C3
:1008300043F80023D025984600262D06273C6B68F8
:100840005B091C4217D06B689B091C42F7D14346D9
:100850000133DBB2C820984601F02EF84346022B44
:10086000EDD10020BD46414B9D44F0BCBB46B24695
:10087000A946A046F0BDC82001F01EF86B680136FD
:100880009B09F6B21C422AD0022ED8D1502528242A
:10089000802263190021D200D81903F067FE601985
:1008A00010220021FB68C01900F028F960192022ED
:1008B0000021BB68C01900F021F960193022002125
:1008C0007B68C01900F01AF96319D819791900F07A
:1008D000DDF8254800F0F0FFFB6A9D4628E6C820B9
:1008E00000F0EAFF022ED1D043460133DBB2984636
:1008F000B4E74836203DA819230020211C4AC0191E
:1009000002F0D0FEAB192035A81920220021DB19F6
:10091000C01900F0F3F8AB19D819B91900F0B6F8FE
:10092000114800F0C9FF0A22F96C386903F09EFFF4
:10093000104803F025FF104B4D4699460F4B0026FB
:1009400098460F4B9A46A878434629786A7800283B
:1009500000D0534601364846F6B203F087FF033510
:10096000A642F0D135E7C046B80B00007C04000079
:100970004C7900107C790010847900107C7800108C
:100980007878001070B50724D5172C40A418114AA8
:100990001D00D65C0322E4103240022A02D1203B23
:1009A0001D00DBB21A00413A192A10D9303B00224F
:1009B000092B03D8FF322A40153AD200E40161180E
:1009C000401805495118082203F0D6FD70BD403D7E
:1009D000EA00F3E74D800010A07B00100378427816
:1009E0008178D21AC37801325B1A013353434360D2
:1009F0007047C046F0B54F1C83B0060038000D00AC
:100A000003F096FD402304002A00310003700130FA
:100A100003F0B2FD002322003C21009304483B0078
:100A200006F0C4F9200003F095FD03B0F0BDC04608
:100A3000100B0020F0B54746CE4680B58BB003AC16
:100A40002200104B802723CB23C223CB23C21B8839
:100A50000026138026236B4499460B4B02AD984623
:100A600023782F706B702A0002233C2140460096A9
:100A7000013406F09BF94C45F2D10BB0C0BCB9462D
:100A8000B046F0BDC87C0010100B0020F0B55746F2
:100A90004E464546DE462123E0B587B004AC2370C0
:100AA0000B78834663704B788A46A3702223E370E9
:100AB0004B888027A38016236B4499460E4B002653
:100AC000984603AD23782F706B702A0002233C21D7
:100AD00040460096013406F069F94C45F2D1534680
:100AE00058465968FFF786FF07B0F0BCBB46B246D0
:100AF000A946A046F0BDC046100B0020F8B507007F
:100B00000C0016001D00782901DC382A0ADDF8BD2A
:100B10000135782C04DC320021003800FFF732FF69
:100B2000083424B22B78002BF2D1F0E7094A10B533
:100B300094464024830063441A68C00062408034B5
:100B400014408022520113431C60034B9C466044B6
:100B5000416010BD04C0014000400140074B8000CF
:100B60009C4660440368C90092000A435A400C2323
:100B70001A4080235B0103431A60704704C00140A0
:100B80000123D0228340120693629361094A4021D7
:100B90009446830063441A68C0004A408031114083
:100BA0008022520113431960034B9C460523604485
:100BB0004360704704C0014000400140024B186888
:100BC0008007C00F7047C04600C0064070B5EFF305
:100BD000108C72B60D4D2B68002BFCD0BFF35F8FCD
:100BE0000724CB08C618C05C01230C40A3401C009E
:100BF0000440034207D118433070BFF35F8F2C606D
:100C00008CF3108870BD100001F064FB2C0100D043
:100C1000F8B54746CE46884680B5EFF3108C72B6DD
:100C2000214D2C68002CFCD0BFF35F8F9A422CD84A
:100C3000D4080727055D061901241740BC402C4243
:100C40001FD007210127894609E0D408055D061950
:100C50004C4639001440A1400C00294211D0013209
:100C60009342F2D201204042BFF35F8F00220E4B2D
:100C70001A608CF3108800280FDBC0BCB946B04660
:100C8000F8BD254310003570EEE7BFF35F8F0023FA
:100C90002B608CF31088012040424346002BECD09F
:100CA000089801F017FBC0462C0100D00021044B2E
:100CB000044ABFF35F8F02C39342FAD17047C04624
:100CC000000100D0800100D0044A1078431CDBB240
:100CD000172B00D9102313707047C046300A00202C
:100CE00010B5064B064C82B00100009318221F235A
:100CF0002000FFF78DFF02B010BDC046F079001054
:100D00005418002001238340002904D0034A1360B3
:100D1000034A13607047034A1360FBE780E200E078
:100D200000E100E080E100E001238340014A13601C
:100D30007047C04600E200E0084B10309B6880001E
:100D4000C358002B07D0064A00209B1A2F229A4234
:100D50004041C0B270470020FCE7C04600ED00E013
:100D6000340A0020024B10309B688000C058704746
:100D700000ED00E070B50D00EFF3108672B60F4A7B
:100D80001368002BFCD0BFF35F8F0D4B10309B68B6
:100D900084001B590B4A934203D09D4201D001F0BD
:100DA000B1FA074B9B681D51BFF35F8FBFF35F8F95
:100DB0000022024B1A6086F3108870BD240100D017
:100DC00000ED00E0CD010010F0B557464E46DE467E
:100DD0004546E0B585B0060000911700EFF3108B93
:100DE00072B66A4A1368002BFCD0BFF35F8F0025F0
:100DF000674B5D579A46002D00DAA9E06B00654C01
:100E000001935B199B009846A146C1444B4652464C
:100E10009B7910361370604BB6009B6899590B1B79
:100E20002F2B33D95D4B994200D0ACE0019B424659
:100E30009C465B4B6544AD0063535A4B0232A2188B
:100E4000043B9B1A1B05584A5B0D651913436B80C5
:100E5000564B0121AB80FF23AB71009BEF71AB6060
:100E60004B460B4319004C4B9B689951BFF35F8F66
:100E7000BFF35F8F0022454B1A608BF3108805B0DB
:100E8000F0BCBB46B246A946A046F0BD01200A0010
:100E90008243D3798C46BB4231D84546130044493E
:100EA0001B1B5B415943090D3D4B63533D4B0235C1
:100EB0006519043B5B1B1B053B4D5B0D2B43AA4691
:100EC0004D466B800425AC465546E044131F444410
:100ED0001B1B1B055B0D1D434B46997100999D80A3
:100EE00099604946DF71334B01431360BBE75800FB
:100EF000C01880002018C179B9422FD902000623FA
:100F0000D356002BF3DA02932B4B61460393131D48
:100F10009A4604235B429C46E14450464B461B1ACA
:100F20001B055B0D9C46204B9571984663464046D9
:100F300003439380019B5A199200039BA418A3803A
:100F4000029B1C4AA371009B2260E771A3608AE7A1
:100F500001F0D8F9002553465D574FE7908802937A
:100F60004005131D9A46031561469C464046D444ED
:100F7000634604302018181AE0230005400D1B02B8
:100F800018430390C5E701F0BDF94FE7240100D0F5
:100F9000751F0020340A002000ED00E0CD01001094
:100FA00000A1FFFF640A002000E0FFFF01BDFFFF7A
:100FB000AAAA00000148804701BD0000F0B5DE4646
:100FC00057464E464546E0B50C0083B0EFF3108817
:100FD00072B65D4A1368002BFCD0BFF35F8F5B4B8A
:100FE0005B499A68030010339F00D5598D4239D070
:100FF000A5424AD0574EAA1B2F2A33D80122924627
:10100000824091464846544A126810400190484632
:10101000524A1060BFF35F8FEFF305829346002AB8
:1010200035D0934201D001F06DF92A0053469A431E
:101030009068844208D175E04B005B189B00F31860
:101040009868A04234D01A00062151560029F3DADC
:10105000844253D0019B002B26D04A46404B1A6055
:101060003D4B1A60394B9B68DD51BFF35F8FBFF377
:101070005F8F0022344B1A6088F3108803B0F0BCF5
:10108000BB46B246A946A046F0BD0D00EAE72A00DD
:1010900053469A4390688442D6D1062010561300D6
:1010A000002809DA0D0031E04A462C4B1A60D9E7D6
:1010B00006201856002822DB4200111889007418F7
:1010C0008A46A1689960E179D971062161569971C2
:1010D000002925DBA488F11A640524155444091954
:1010E000E0240905490D24022143998013181D4A63
:1010F0009B001178F31899711070ABE713005946F3
:10110000002914D1FF3191711749918015490A784E
:101110009A71164A9B1B5B415A43120D0A7099E75C
:101120001349E2E70620105613000028C4DA114ADA
:101130001149D21A083A5002400D014399800F49D3
:1011400052080A43DA8085E7240100D000ED00E070
:10115000CD010010340A002000E100E080E100E051
:1011600080E200E0751F002001BDFFFFAAAA000079
:1011700001BD00006E0A002000F0FFFF00F8FFFF35
:10118000F0B5EFF30584C646012600B50643EFF33C
:10119000108C72B61C4A1368002BFCD0BFF35F8F13
:1011A0001A4FA400BB681A4D1B59020098461949F2
:1011B0000023521B52415143090D2A0049B2B04548
:1011C00015D0062414578C4215D001330C32042B51
:1011D000F7D1114B1A7819708271BFF35F8F00221B
:1011E000094B1A608CF3108880BCB846F0BDBB6810
:1011F0000A4A1A51EDE75A00D3189B00ED18FF2355
:10120000AB71074BAB80E4E7240100D000ED00E0B8
:10121000340A0020AAAA0000751F0020CD0100108A
:1012200001BDFFFF054B064A1360064A1360536079
:101230009360D360136153619361704780808080B5
:1012400000E400E004E400E010B5084B084C82B074
:1012500001000093002205232000FFF7D9FC00289D
:1012600001DB1F23181A02B010BDC0460C7A001013
:101270007A1F0020024B9C46614489000160704740
:101280004000003410B50400FFF71EFD01002000EF
:10129000FFF7F0FFFF232371BFF35F8F10BDC04640
:1012A00010B50400FFF710FD01002000FFF7E2FF7A
:1012B000FF23A380BFF35F8F10BDC04610B50400AD
:1012C0000120FFF70DFD034BC3189B002360BFF304
:1012D0005F8F10BD40000034034B9C466144890081
:1012E0000160BFF35F8F70474000003483680B4894
:1012F00010B58446614462441201090159189B18D3
:101300005C684A680120944201D802D00020C0B233
:1013100010BD1A680B689A42F9D8F7E7FFFFFF0F74
:101320000A4B1968EFF3108072B60A68002AFCD0E5
:10133000BFF35F8F1B68BFF35F8F00221A6080F3DB
:10134000108840BF002000217047C046441F002085
:10135000F8B50B0004004168EFF3108572B60A6817
:10136000002AFCD0BFF35F8FFF222068D9B2467BF2
:101370001A408E4207D006685700BF18F619033E80
:10138000B678002E10D0E6681B0AB218013A12781F
:10139000DBB29A420DD000206368BFF35F8F00225A
:1013A0001A6085F31088F8BD22699342F3D1266153
:1013B000F1E700F0E1FCEFE7F8B557464E46454649
:1013C000DE46E0B598460CAB1C780DAB1B780700E9
:1013D00091469A460668002C3BD023006500316890
:1013E0002D19033D4919374A944663441A01BB68D5
:1013F0009B184A461A6042465A600A9A9A600B9AAB
:10140000DA6000238B704B700B70737B9B46002B54
:101410003BD0220073685946B06898475B465B0032
:101420005B443268033B002827D058465519A87002
:10143000D118D35C002B00D06B705B460C707373BB
:101440005C4523D02000F0BCBB46B246A946A0466E
:10145000F8BDB07B0028F6D0450031682D18033D5B
:1014600049194A780300B273002A00D1F2730022AE
:1014700004008A704A700A70B5E7D3189C7051193D
:10148000525D002A18D15B460B7074734A4643467E
:10149000387D00F027FB051E06D10E9B002BD1D016
:1014A0000E9B20001D70CEE75346002BF5D1210086
:1014B000386800F061FCF0E75A705B460B7074739B
:1014C000E4E7C046FFFFFF0FF0B5DE4657464E4645
:1014D00045460023E0B58BB00893684B8200D45892
:1014E00000239B46099000F09DFA02000B00606803
:1014F000EFF3108A72B6564601680029FCD0B24656
:10150000BFF35F8F21684F7B8C46002F2ED0A568DC
:101510005B49A94679180901894449460868496820
:1015200005000E00AD1A9E41002E5FDD02000B008B
:10153000099800F0D7FA002300229946002306926A
:101540000793002398466368BFF35F8F5A461A607B
:101550008AF310884346002B12D10028C3D10BB068
:10156000F0BCBB46B246A946A046F0BD002300220F
:101570009946002306920793002300209846E2E74D
:10158000089B494618023843C047626805000E00B0
:10159000EFF3108A72B61368002BFCD0BFF35F8F95
:1015A000002E41DB2B00334302D02369002B56D1A0
:1015B0002368DA7B002A05D01968500082188A183F
:1015C000033A57709A7B002A00D19F73DF73E26859
:1015D000013FD35D0133D3555B4623616368BFF39D
:1015E0005F8F5A461A608AF310887CE7002E02D17A
:1015F000002D00D09AE70021604600F091FB4B4699
:101600001A685B68069207934B469B6898464B4660
:10161000DB689946E368DB19013B1B7808931B02E2
:101620000343236100208EE72369002BC0D0069A74
:10163000079B8021521BB34109068B4202D3012232
:10164000104B52420021049101310391494601910E
:101650004146200002970091FFF7AEFEBCE700F084
:10166000E1F92A00330012184B41802109068B4210
:10167000E8D30122034B5242E4E7C046281D002074
:10168000FFFFFF0FFFFFFF7F10B5144C6368002BB7
:1016900004D00A211248FFF7EDFD10BD2300114AC6
:1016A0001021206800F0D0FA032000F0AFF90320E9
:1016B00000F080FA03200C4900F0CEF9FFF704FB9C
:1016C0000A4B9C4603232375D0231B061B686044EA
:1016D0006375074B80006060DC60DAE77C0A0020FD
:1016E000441F0020ED120010C91400104000003407
:1016F000281D0020004870477C0A0020F0B557469E
:101700004E46DE464546E0B58BB01F00149B804632
:101710009B46159B16009A4616AB1B7802AA0793A8
:1017200000239946D37743465A68EFF3108472B684
:101730001368002BFCD0BFF35F8F02AA94461F23CF
:10174000634404934B4603930293534601935B46D1
:101750003200009340463B00FFF72EFE4346002830
:101760000DD15B68BFF35F8F186084F31088013878
:101770000BB0F0BCBB46B246A946A046F0BD4246FF
:10178000DB6852681B18013B1B78BFF35F8F49462B
:10179000116084F3108802AAD27F002A02D11B02B2
:1017A0001843E5E7079B002B1DD051460020D84782
:1017B00003000B4317D004000D1E09DA8023361BEB
:1017C000AF411B069F42AED30126084F7642AAE7DF
:1017D00000F028F98023001969411B0606000F005C
:1017E0009942A0D3F0E70020C2E7C046FFFFFF7F89
:1017F000407D7047F0B504000D0006267642F717CD
:10180000C64636196F4100B584B08F4214D811D046
:1018100000F008F932003B00121A8B41002B15DC56
:10182000002B3ED02000290000F006F904B080BC57
:10183000B846F0BD8642EBD90026002700F0F2F84A
:1018400032003B00121A8B41002BE9DD002302938A
:101850000193154B3200009314483B00FFF74EFFF5
:101860000028DFDB00239846BC46114A114F7B6AF3
:101870009C4504D8B96A8E42D4D99C45D2D111680E
:10188000EFF3108072B60B68002BFCD0BFF35F8FB4
:101890001368BFF35F8F4146196080F3108820BF43
:1018A000E5E7002ABED0D1E7211300107C0A002012
:1018B000441F00200040054070B5060000F0B2F85B
:1018C000FA2204000D00002330000021920002F0F3
:1018D00085FD8023001969411B06994202D301202E
:1018E00002494042FFF786FF70BDC046FFFFFF7F01
:1018F00070B5EFF3058305000C0084B0002B0FD00A
:10190000104A0020536AA34203D3926A0130AA42CC
:1019100001D304B070BD1B1B5A1E9341D8B2F8E727
:10192000094E02930193094B0200009330000B0013
:10193000FFF7E4FE011EE3DD20BF3000FFF708FDE6
:10194000DEE7C046004005407C0A0020211300105D
:10195000F0B5EFF30582D6464F4646461000C0B5B7
:101960001038EFF3108872B6214C2368002BFCD09E
:10197000BFF35F8F0123190081401E4D1F00696373
:10198000AA461D4D29601D4D2E78AC463500C54038
:101990002F402B4215D053465F6A194B8500EB58F8
:1019A0009F4218D36246174B8E43EB581670BFF315
:1019B0005F8F0022226088F31088002B06D09847A2
:1019C00004E0BFF35F8F276088F31088E0BCBA465D
:1019D000B146A846F0BD0C4B92009C466244136889
:1019E0001360BFF35F8F0023236088F31088EDE757
:1019F000280100D0004005403C700540791F0020C0
:101A0000501F00203C170020D03F054010B5034B6D
:101A100001001800024AFFF7D9F810BD741F00201A
:101A2000287A0010034B596A0A00986A596A8A4258
:101A3000FAD1704700400540064A536A9942FCD8E3
:101A400007D1044B02E05A6A914202D19A6A82425B
:101A5000F9D370470040054070B504000D00EFF366
:101A6000108672B61A4A1368002BFCD0BFF35F8F42
:101A7000002D1BD02000FFF775F9164981420AD0CE
:101A80002000FFF777F901212000FFF73BF9012340
:101A9000A340114A1360114BA400E550BFF35F8FC0
:101AA00000220B4B1A6086F3108870BD0121A14003
:101AB0000A4BA200D5500A4B20001A788A430549E8
:101AC0001A70FFF77BFA00212000FFF71BF9E5E70A
:101AD000280100D051190010386005403C17002043
:101AE000791F0020F0B54F46D6464646C0B50700E0
:101AF0002B4C616A0D00A66A616AA942FAD18B4239
:101B000008D805D00120E0BCBA46B146A846F0BDD1
:101B1000B242F7D9EFF3108A72B622480168002961
:101B2000FCD0BFF35F8F0125BD401F491C4C884688
:101B3000097889462943C9B28C46414660460870F7
:101B4000391D890065630A511849B8004350216A5C
:101B50000020294219D0616A0800A66A616A8142A0
:101B6000FAD18B4219D801D1B24216D8CC450BD04C
:101B70000B4B1F221D625D6301233A4093400C4AC8
:101B8000136043464A461A700120BFF35F8F00225C
:101B9000044B1A608AF31088B5E70020F5E7C046C9
:101BA00000400540280100D0791F0020501F002070
:101BB00080E200E0EFF3108C72B60A490B68002B4C
:101BC000FCD0BFF35F8F01238340074A07481362AD
:101BD00002789A430270BFF35F8F00230B608CF38F
:101BE00010887047280100D000400540791F002070
:101BF00070B506000D00140000291DD0002A12D077
:101C000073688068984762006B0012195B1931682D
:101C1000033A033B002808D08A189570C818CB5C9B
:101C2000002B0BD10470280070BDCB189C70881855
:101C30008A5C002A05D105702000F5E75370047016
:101C4000F1E75A700570F7E710B583600023CCB256
:101C500043730133426004738373C4730068421C8E
:101C6000012C05D90133DBB2137003329C42F9D148
:101C7000FF230B405A00D318C018002303384370C9
:101C800010BDC04670B50400081E07D0430021688F
:101C90001B18033BCB185A78002A00D170BD5500A1
:101CA000AD18033D491900254E784D705D70010057
:101CB0002000FFF79DFF310005002000FFF7E2FF45
:101CC000290002002000FFF793FFE7E7F8B54D0079
:101CD0006D180368033D0E00595D17000400FFF7FF
:101CE000D1FF002F0CD12368002805D0002142002D
:101CF00012189A18033A917000225B195A70F8BDB5
:101D0000E17B2368002904D04A0052189A18033A4C
:101D10005670A27B002A00D1A673E673E4E7C046A2
:101D2000F8B5467B03687500AD19033D0F00595D9A
:101D30000400FFF7A7FF002F0ED12368002805D06D
:101D40000021420012189A18033A917000225B1980
:101D50005A7060733000F8BDE17B2368002904D01D
:101D60004A0052189A18033A5670A27B002A00D1F2
:101D7000A673E673E2E7C04670B5050000292CD0D3
:101D8000437B8B422ED04C0000686418033C04193E
:101D9000A278002A21D053009B18033BC25CC618CE
:101DA0008A4202D11BE0002A08D053009B18033B53
:101DB000C3185A788A42F6D162785A7000230122F9
:101DC0002800A3706370FFF781FF697B0200280081
:101DD000FFF70EFF6873012000E0002070BD6378FC
:101DE0003370EBE701221900FFF770FFF2E7C046FE
:101DF000F0B5DE464E4657464546E0B583B0019203
:101E00001A0E93461E0205000023894630005946EB
:101E10000C9A01F023FD374B6C009C466419A4001A
:101E2000644463680700834200D260602B1FDBB20A
:101E30009846012B38D9C02380229B0123431201ED
:101E40001A602D4BAD0059599A46002923D1019BA8
:101E500022685B015340E0221A4080235B01234348
:101E60001A604246012A38D9802380229B012343ED
:101E700012011A6030003A0000235946676001F0F1
:101E8000EDFC53465851012003B0F0BCBB46B246AE
:101E9000A946A046F0BD586901F0A2FC01304300FC
:101EA0001B18033BFDD2D2E74B46012BC3D1C02305
:101EB00003229B0123431A60023AA3681A42FCD012
:101EC000019B22685B015340E0221A4080235B01A2
:101ED00023431A60084AAD0092464A4621685140A1
:101EE00003220A401A6001224B469A40A3681A4214
:101EF000FCD0B9E7008000405818002030B50C2015
:101F000083B000F0CFF8FEF759FE00280BD02D4823
:101F10002D4A01000300283104C38B42FCD12B4B16
:101F2000436203B030BD2A4CA06700F011F90122D2
:101F3000284B1A60636C012BFCD10322264B1A60DC
:101F4000234A936B012BFCD1013300930121234AD7
:101F50002348043300F054F8052301210093214A5B
:101F6000214800F04DF8214B214D174C00930022E1
:101F700002210420FFF73CFF2B00002201210095E5
:101F80000520FFF735FF23000022002100940720E1
:101F9000FFF72EFF23000022002100940820FFF706
:101FA00027FF0A4B00220093002123000920FFF79E
:101FB0001FFF2B000022002100950620FFF718FFCD
:101FC000AFE7C04658180020006CDC021BB70000C9
:101FD000008000403CB0004030B00040002F685905
:101FE00000800240008C864700C00240001BB70002
:101FF00040597307014B8000C058704758180020A3
:10200000F8B5040022481E0017000D0001F0E8FB9F
:102010000100380001F0E4FB069B36041B031E435D
:102020002368002B22DB1B4B1B49E3185A1E9341EC
:102030008022920194465B421B0B184A1B036344A7
:102040001360174A13601F008A689743FBD1C022B0
:10205000231D92011A4321232560A0601360236889
:10206000002BFCDA0823E6601360F8BD3F232268EA
:102070001340AB42D7D1A3681B051B0D8342D2D1BD
:10208000EE22E368D2021340B342CCD1EDE7C04662
:10209000001BB7000040FDBF00C0004000E0004052
:1020A00000F000408023024A9B000343D362704744
:1020B0000080054010B580241C4BE4051C600028FE
:1020C0001AD001231A4C18431A4BDC611A4C4440B5
:1020D0001C62596298628021144BC9051960174827
:1020E00017490860E021C9041960002A07D180223D
:1020F000144B12061A6010BD0E4BD861EBE753016A
:102100009B1A9B009A18802312015B049A4209D201
:1021100013000D490B60074B5A608022094BD20512
:102120001A60E8E7094B1A00F3E7C04600B0054023
:10213000D3C007B0008005402D3FF84FFCFF0100E1
:102140000820014000A00540001D0020FFFFFF0007
:10215000AA23064A1B0113602F230549D360054BB0
:1021600019605368002BFCDA7047C04600400240FB
:1021700000B0FA00006002402B4B2C4A70B51A6088
:102180002B4A2C4B2C491A6014008B689C43FBD1C2
:102190002A4D2B4EB54208D2013E761BB60808CD1B
:1021A000984723000134B342F9D1FFF7A7FE254A2F
:1021B000204B1A60204A9368DB43DB01DD09002BCA
:1021C000F9D14022204B214C214E9A675A671A6759
:1021D000DA66B44208D223682000002B20D00834ED
:1021E000FFF75EF8B442F6D31A4C1B4EC022B1681A
:1021F000200002F0C1F9B460FEF758FDFFF712F8B5
:10220000FFF742FA154C164EB44208D2013E361B77
:10221000B60808CC98472B0001359E42F9D170BD15
:10222000FFF730F80834D4E700E00040BFCDFBFEF4
:10223000FE7F3C0000F0004000C000406010002025
:1022400070100020FFFFFF0100F001405810002037
:10225000601000200000002000ED00E07010002061
:102260007810002000BEFDE7094A0300106800282E
:1022700005D00849C3188B4207D813607047064839
:102280000449C31810608B42F7D901204042F5E79A
:10229000F8180020000004207C1F002010B5041E48
:1022A0000DD0FFF7BFFB074B1A685B68801A994196
:1022B0000023054A01F0BAFA20606160A2600020A4
:1022C00010BDC0467811002040420F0010B5FFF746
:1022D000C9FFC0460FB400B5084883B002F050FAF9
:1022E000049B002B07D005A91800019101F0FEF90D
:1022F000034802F045FA0120FFF7B4FF4C7A0010C2
:102300005C7A001010B50148FFF7E4FF607A001016
:102310009A4200D2885470477047C046F8B5574675
:10232000DE464E464546E0B599460A9B07009A466A
:102330000D9B884693460B9C9B073CD10C9B9C4273
:102340003ED20C9B0B941E1B15000C005E442A0011
:102350004B46013521002020B847B542F7D1A046B1
:102360000B9C002C20D0454636195346321B013CAD
:10237000185D29004B46B847002CF6D12B003500DC
:1023800098460D9B9B070FD55B46EC1A0C9BA3420E
:102390000AD9464698462A004B463100202001348F
:1023A000B8470135A045F6D82800F0BCBB46B24678
:1023B000A946A046F8BD16001500002CD3D1E0E7D1
:1023C0001600002CCFD11500EEE7C046F0B54F4601
:1023D0004646D646C0B584B098460EAB1B789446A8
:1023E0009946129B0D9C109F119E9A0725D4002E92
:1023F00067D1BC4221D201221A409246202C00D142
:10240000EDE00C9A551E302202E0202C00D17DE038
:1024100001342A55A742F8D85246002A0DD0B442BA
:102420000BD20C9A551E3022202C02D173E0202CA6
:102430002ED001342A55B442F9D1DA063ED55A05D8
:102440002FD4002C29D10F9A102A00D1BAE00F9A6C
:10245000022A00D1BFE030220C9C227001244A469F
:10246000002A66D15A0700D49CE02B220C9D2A55E5
:10247000013403930C9B62460093029643460194F9
:10248000FFF74CFF04B0E0BCBA46B146A846F0BD29
:102490002024DA06EDD55A0503D4A74269D0B44208
:1024A00067D00F9A102A74D00F9A022A57D0202C86
:1024B000DFD02200013430250C9FBD54202CD8D011
:1024C000CDE7012215001D40AA461A4236D04A46E1
:1024D000002A4CD10C321A4249D1BC429FD2202C46
:1024E00000D08EE7202E16D82024DA06C1D55A0552
:1024F0001AD4202F01D0202ED3D11F220F9D102DB2
:1025000070D00F9C022C75D0541CD4E75246002A80
:102510007DD0202EBCD92024DA06AAD55A0503D4B2
:10252000202FEAD0202EE8D00F9A102AA1D1202403
:102530009FE72D220C9D2A5501349AE7BC4200D317
:102540007BE7202C00D05CE7DA06F0D55A05EED404
:10255000202F66D0202EEAD134001F22CEE7202C77
:1025600000D186E762220C9D2A5501349FE7013E87
:10257000B3E7621E012CC1D10F9A102A00D066E782
:102580009A063DD558220C9C2270283A627002248B
:1025900065E79A060ED4202CC9D078220C9D2A55C6
:1025A000013484E71A0700D463E720220C9D2A55E2
:1025B00001345EE7202CBAD058250C9A12191570F8
:1025C000013474E79A0608D558220C9C22703022F8
:1025D0006270022443E76032F7E77822F5E7002AC9
:1025E00082D1B1E7A21E013C9D0605D478250C9F3F
:1025F000BD545EE71400B5E758250C9FBD5458E75D
:1026000078220C9C2270483A6270022427E7DA068E
:1026100000D42EE75A0587D4202F00D03FE71F2291
:102620006CE73C001F2269E7F0B557464546DE4699
:102630004E46E0B593B09B461CAB80CB80461B78E2
:10264000894692461E9D0993002F08D11023219A96
:1026500000249A431300219A2193520524D4219BEC
:1026600061229B0639D4D3B202AA1F2694460A3BA4
:1026700000246644089308E03033DBB2013433555C
:10268000AF4211D3202C0FD007002900380001F0F1
:10269000A7F8CBB20929EFD9089A013494466344CC
:1026A000DBB23355AF42EDD2219B52460693209BBD
:1026B000494605931F9B40460493099B039502934B
:1026C0000AAB009301945B46FFF780FE13B0F0BCA9
:1026D000BB46B246A946A046F0BD4122C3E7C0466C
:1026E000F0B54546DE4657464E46E0B595B09B46AA
:1026F0001E9B1F9D9A4620AB1B78239E0B93229B0B
:1027000008909846534609910A922B4308D1269A7D
:1027100010339A431300269A00242693520529D495
:10272000269A612392063FD404AA94460A22524272
:102730001F279146DBB20024674499440BE03032F6
:10274000D2B201343A55AE4214D8AE422ED0202C2B
:1027500010D082460D00424633005046290001F059
:102760007DF8D2B2092AEAD94A44D2B201343A55A4
:10277000AE42EAD9269B0A9A0693259B09990593AE
:10278000249B08980493434603930B9B0194029364
:102790000CAB00935B46FFF719FE15B0F0BCBB46CF
:1027A000B246A946A046F0BD4123BDE7D045CED9EB
:1027B000E0E7C046F0B557464E464546DE46E0B532
:1027C0008FB08146884692460893189A199B10004C
:1027D000190001F0C6FA002800D0ADE01898199948
:1027E0000122D84B524201F0B7FA002800D0A3E0F2
:1027F000189819990122D44B524201F09FFA0028EF
:1028000000D099E0189819990022002301F096FA57
:10281000002800D0CAE1189E199F80231C9ADB0073
:102820001A400B921C9A1A4201D106231A93802354
:102830001C9A1B011A4033000696079709923B43E6
:1028400000D092E0002A00D06AE104249B461B9B42
:1028500000259C4200D21D1B02231C9A1A4009929B
:102860001C9A134203D0634263415B421D405B46A6
:10287000002B07D0069A079B3000390001F0FDF9C4
:1028800006000F00189819990022002301F056FA4B
:10289000002803D0802109067B181F001C9AAB4B2F
:1028A000009601971340089F04931A9B0395029387
:1028B00052463B004146484600F084F90500002C92
:1028C0004BD020221C996E1C11400B0059424B41E9
:1028D000584210403B002A0041464530C847052376
:1028E000059300235A46594603930A330293D30FA4
:1028F000D21701938B185340013C3200009341469C
:102900003B0048460494FFF78FFE099ABB4605003A
:10291000002A22D05246841A1B9AA2421DD94F4641
:102920001600D9462A004B46414620200134B847BC
:102930000135B442F6D310E01C9B524604931B9B16
:10294000414603931A9B48460293189B199C009397
:102950000194089B00F036F9050028000FB0F0BC88
:10296000BB46B246A946A046F0BD794B78009C46CE
:10297000400D604401F008FA764A774B01F09BF96C
:10298000764A774B01F070F9764A3B031B0B1A43EA
:1029900004000D0006981100734B002201F05BF952
:1029A000724A734B01F087F902000B0020002900E6
:1029B00001F05AF901F000FA834601F0E5F96D4A99
:1029C0006D4B04000D0001F076F900226B4B01F015
:1029D0004BF901F0F1F96A4A6A4B29000A9020008C
:1029E00001F069F904000A980D0001F0CDF9664A7A
:1029F000664B01F060F902000B002000290001F095
:102A00002AF904000D0002000B000694079501F05E
:102A100052F904000D000698079902000B0001F01E
:102A200023F900220C900D91594B2000290001F050
:102A300024F90022574B01F017F902000B00200087
:102A4000290001F01AF90022534B01F00DF90200A0
:102A50000B002000290001F010F9069A079B0D00D9
:102A600080210400C905002001F0F5F802000B00E8
:102A70002000290001F0F8F802000B000C980D99D5
:102A800001F0FBF80022374B01F0EEF8434B0A9CB3
:102A90009C4664442305002201F00DF932003B00FE
:102AA00004000D0001F058F900282CD10694079578
:102AB0005B46C62463339C42A441099B64420434B0
:102AC000002B00D1C3E6069A079B1100194329D0B9
:102AD00030003900324A334B01F036F9002807D074
:102AE000002230003900304B01F028F9002819D1BC
:102AF0001A9B002B00D1AAE60B9B5A1E93411A9AEF
:102B0000D31A1A93A3E601235B429C4600222000BD
:102B10002900204BE34401F0B0F806900791C7E785
:102B200000239B461A9B5B4549DD5A469B1A013B95
:102B30001A9380231C9ADB001A43002300249B462F
:102B40001C9284E6FFFFEF7FFFFFEFFFFFF7FFFF21
:102B500001FCFFFFFB799F501344D33FB3C8608B48
:102B6000288AC63F0000F03F0000F83F61436F63D2
:102B7000A787D23F71A379094F930A400000E03F35
:102B80001655B5BBB16B0240EF39FAFE422EE63F57
:102B900000002C400000244000001840FF0300000B
:102BA0002D431CEBE2361A3F80842E418022120610
:102BB0009446189B1E00199B63441F002DE60023BA
:102BC0001A93B6E7F0B54546DE464E465746E0B5A1
:102BD00095B08B46904699461E9A1F9B0A90190005
:102BE0001000209D01F0BDF8002800D0B0E11E9833
:102BF0001F990122C74B524201F0A0F8002800D0D3
:102C000037E11E981F990122C34B524201F0A4F8EC
:102C1000002800D0A7E01E981F990022BF4B01F0AA
:102C20009BF8002800D088E01E981F990022BC4B1A
:102C300001F084F8002800D07FE01E981F99002240
:102C4000002301F07BF8002800D0FAE000230B936A
:102C50008023229C229ADB001C401A4200D102E110
:102C6000092D00D87CE106A98C462C0017220023F0
:102C70003021093C62440133D154EF1A202B00D19A
:102C800032E1A342F7D10022A44B069207931E988B
:102C90001F9901F091F8050001F076F802000B0091
:102CA0001E981F9900F0D7FF069A079B01F003F8C2
:102CB0000890099101F0A4F8060001F061F8020003
:102CC0000B000898099900F0C6FF0022954B089068
:102CD000099101F041F8002800D1D2E0013630001E
:102CE00001F04EF8069A079B01F02EF8002801D05B
:102CF00000260135AA46002F00D098E0280001F0F8
:102D000043F802000B001E981F9900F0A4FF854BAA
:102D1000002206000F0001F011F80CAB9A460028C3
:102D200045D10022300039007E4B01F015F8002813
:102D30003DD1EB073BD5013539E0229B4246049358
:102D4000219B594603930A981E9B1F9C0295009352
:102D500001944B46FFF72EFD15B0F0BCBB46B246C2
:102D6000A946A046F0BD229B5B0767D403226E4BA9
:102D700022990192039121990291009342464B4678
:102D800059460A98FFF7CAFAE6E706AA94461723B7
:102D9000280063440A2101341E1900F0F9FC303187
:102DA000280031700A2100F0F3FC051E76D0202C9B
:102DB000EBD10323229A1340012B1DD1219B002B21
:102DC0001AD00B9B002B00D0BBE0229A0C3313428D
:102DD00000D0B6E0219B9C4200D387E006AB9C4626
:102DE00017223023624404E0219901341355A14293
:102DF00059D0202CF8D12024229B01940393219BAD
:102E000002935346B9E706AA944617230A2163445E
:102E1000300001341D1900F0E3FC3031297030001E
:102E20000A21013F00F0DCFC092E46D90600202CC7
:102E3000E9D155460CAB20249A46B8E704223B4B17
:102E400096E71E9A1F9B0020002100F004FF01233B
:102E50000B938023229C229ADB001E901F911C4022
:102E60001A4200D0FCE60022314B06270692079357
:102E70000DE7229B0393219B0293042301932D4B87
:102E80007BE7002208980999264B00F057FF00289D
:102E900000D02FE7002E4FD101362BE70323229AD3
:102EA0001340012B66D0202CA6D00B9B002B1FD0EB
:102EB0002D235246135501349EE75546202CB9D098
:102EC00030233A19002F08D0172006A90134091819
:102ED0000B55202CAED09442F6D10CAB9A462E2343
:102EE00052461355013462E72024CCE6202C83D0CF
:102EF000229B5B0708D4229B1B0700D47CE720237E
:102F000052461355013477E72B23524613550134AB
:102F100072E7C046FFFFEFFFFFFFEF7F65CDCD41BA
:102F200065CDCDC10000E03F747A00106C7A0010CE
:102F300080842E417C7A0010F30700D4DAE6013653
:102F4000D8E6219B013B21939C4200D246E7AAE7A9
:102F5000229B0393219B029303230193074B0CE7CE
:102F6000074BEA009B185C681B682F0006930794C8
:102F700000248CE6219B002B95D022E7787A001064
:102F8000807E001010B5002800D110BD01F0EAFBD2
:102F9000FBE7C0460B0010B5002802D049681B684B
:102FA000984710BDF0B5DE4657464E464546E0B55B
:102FB00097B01C00209B92460C93C34AC34B834698
:102FC00089461A60002900D1CEE12078002500282A
:102FD00000D1D0E1BE4B5F460B93BE4BCB460E9368
:102FE00008E02A00534659466E1CB8473500207841
:102FF000002878D001342528F3D108239946043BD2
:103000009846023B00269C462078611C0300203B2A
:10301000DBB2102B03D80B9A9B00D3589F460300BA
:10302000303B092B38D9002398462A2800D19EE04E
:1030300000230D932E2844D00200683AD2B2122AFF
:103040001CD80E9B92009A58974601230C001E43F1
:10305000DAE763460C001E43D6E743460C001E43E6
:10306000D2E710230C001E43CEE74B460C001E4354
:10307000CAE7802260785200164301310C006728AD
:1030800045D82428ADD90200253AD2B2422AA8D880
:10309000914992008A58974600231A0000E00131B6
:1030A00093009B185B001A1808780C000300303B53
:1030B000303A092BF3D90023904601310D932E2885
:1030C000BAD18020303B9C46C000064360780A009D
:1030D00084446346092B00D84FE12A2800D166E1D9
:1030E0000C000131A8E7D9462C00BB46AA4501D8FF
:1030F00053465D1E53462A0049460020D84720000B
:1031000017B0F0BCBB46B246A946A046F0BD0200CF
:10311000693AD2B20F2A00D963E701216F4B91407F
:103120009C460B400F936346194200D035E10A2AB2
:1031300027D0072A00D054E721220C9B324398461F
:10314000059208220D9B049203931023424602939A
:103150000F9B5946019308CA3800904600932A00F5
:103160005346FFF761FA434605000C933FE70C9B7B
:1031700004CB9046002A65DB60780C930C0001318B
:1031800056E70C9B0D9A02CB11930B7818000C9309
:10319000002A00D016E10C9B002B17D002225242CD
:1031A000013294460A000D9B8C440F91994661466A
:1031B000944602E0914200D15AE153780132002B4B
:1031C000F8D14B4661460D93531A0F93802233007A
:1031D000D20013409946164204D00F9B0D9A934299
:1031E00000D90F920222130033401093324200D1D3
:1031F00053E10C9B002B00D19BE143460C93230031
:103200002A004D1B4C46A84699460D9D00E0320011
:10321000002C04D06B1E002D00D139E11D00534657
:103220005946561CB8474346985D0028EFD10C9B81
:103230004C469846109B002B00D079E1119B35003D
:103240000C93D4E6022216434246524260789046DE
:103250000C000C930131EBE660786C2800D1FCE0A7
:10326000802252001643013108E7802292006078E4
:103270001643013102E76078682800D1F3E080222C
:1032800001311643FAE6672800D1A0E0472800D1B3
:10329000DDE0452800D1DDE00C9A0721073213005C
:1032A00042468B43190003920D9A049602920CC970
:1032B0003800009201930C912A0053465946FFF7BB
:1032C00079FA050093E6C046A52F0010FC1C0020EB
:1032D000E47C0010287D0010747D001041900000F7
:1032E000462878D00C9A07210732130042468B43B8
:1032F000190003920D9A049602920CC938000092AC
:1033000001930C912A0053465946FFF75BFC0500D8
:103310006DE62A005346594625206E1CB8473500F5
:1033200065E66B1C99460C9B04330D93B60700D4DD
:10333000DDE00C9B2A00187859465346B8474346AF
:103340004544012B00D80FE1A0464E465C463200B2
:103350005346013621002020B847B542F7D1A34695
:1033600044460D9B0C9342E6CD4B20789B460025AE
:10337000002800D02EE60024B8E600218B005B1860
:103380005B0001321918107830390300303B092BEB
:10339000F4D90D911400511C4EE66F281ED000D8B0
:1033A000FDE0102278281AD09643063A17E00C9ACE
:1033B000A07808CA0234D943C9170B400D930C9268
:1033C000611C39E6002B00D100E7013AE8E68022D3
:1033D0001201164360E72022164383E70822710595
:1033E0004FD40C218E4380213000890008400E42CA
:1033F00000D0BBE00C9B04339946F10500D536E1C3
:103400000C9B710600D5A7E0310600D43FE1198876
:10341000434604930D9B0596039300230292019368
:10342000009153462A0059463800FFF7FDF84B46F5
:1034300005000C93DBE5582826D002226228CED066
:10344000720500D5B3E0102296433200B2E080222C
:1034500012011643202216431EE7C0229200A078D4
:103460001643E11C0AE6C022A0781643E11C05E6DB
:1034700063468C46190063464A465B1A0D920F93C9
:10348000A4E60D218E43AEE720221643103AA6E7AC
:103490000C9B4C4698461600CCE60F9B984500D8EE
:1034A000F7E042465619F61A4B460C930D9B0F91C6
:1034B000994623005C469B462A005346013521006D
:1034C0002020B847AE42F7D14B460D930C9B0F9985
:1034D00099465B46A3461C00434601330F930B7885
:1034E0000C930C98002800D087E62E00A6E64346F1
:1034F000012B33D96B1E4344994623002E004C46C2
:10350000A9465D469B4632005346013629002020DD
:10351000B847B442F7D15B46AB464D46A1461C00C6
:103520000C9B4A461878594653464544B84718E715
:1035300035000F9B9845D8D94246A0465C4656199F
:10354000F61A2A005346013521002020B847AE4222
:10355000F7D1A346444671E6197859E70C9B2A0037
:10356000187859465346B8474D46FAE643460793FE
:103570000D9B0720069300230C9908960731814381
:103580000492059302930CC90C9100920193594641
:103590002A0053463800FFF7A3F8050027E510225C
:1035A000330093431A00692877D1710502D511229F
:1035B0009643320091051BD40C9B1E1DD10547D4A8
:1035C0000C9B51063BD519780800434604930D9B8C
:1035D000C90F03930A2305920293019100902A00D8
:1035E000534659463800FFF71FF80C960500FEE4D5
:1035F000082307209C460C99073181438C4463467D
:1036000003C90C93434607930D9B089206930A2225
:10361000002304920593CB0F0293CB1712931393BD
:10362000129A139B160046401800484014961590B5
:1036300014981599801A994102000B00A5E711060C
:1036400020D50021595ECB17C818584080B2BCE77E
:103650001968434604930D9B059203930A23029332
:10366000CB0F0193CB17C91859400091B7E74346D8
:1036700004930D9B059603930C9B029201901B688B
:103680000093CEE61968CB17C81858409DE7196813
:10369000BEE60F9B01330F9323E71E000A229EE62E
:1036A000192300100CB430B585B008AC08CC064D19
:1036B0000A000094010028000394FFF773FC05B092
:1036C00030BC08BC02B018471123001000B585B00B
:1036D0000391012102900093034813004A4202A97A
:1036E000FFF760FC05B000BD952F001010B5094A2A
:1036F0000300146884B0002C08D001220091064811
:10370000524203A9A047012004B010BD01F038F8CF
:103710000020F9E7FC1C0020852F0010014804213F
:10372000014B1847B00A00204D370010142310B584
:103730000100188804331B88984710BD162310B564
:103740000100188802331B88984710BDF8B547461A
:10375000CE4680B50F1E19D01423994604330400B9
:103760000025012698464B461888434621681B8849
:10377000984701C4431E9841013540420640AF427C
:10378000F1D13000C0BCB946B046F8BD0126F8E71B
:10379000124A936F9B0815D29066D166002905D016
:1037A000FFE7FFE7FFE7516F106F704704B5802117
:1037B0000906C2175140002800D0C84304F024F87D
:1037C000002104BDF0B5146E556E576F166FFFF7EC
:1037D000E3FF1466556657671667F0BD000000D01A
:1037E000114A936F9B0813D210665166002905D0C9
:1037F000FFE7FFE7FFE7516F106F704704B5002840
:1038000001D00020C04303F0FFFF002104BDC046EB
:10381000F0B5146E556E576F166FFFF7E5FF14661F
:10382000556657671667F0BD000000D094464A4AB7
:10383000926F9208624601D228E0C046F0B5464E2B
:10384000346E756E776F366F00F020F89446424AFA
:1038500014665566576716676246F0BD94463E4A41
:10386000926F9208624601D254E0C046F0B53A4EDB
:10387000346E756E776F366F00F04CF89446364AAA
:1038800014665566576716676246F0BD002B24DB49
:1038900011D000293EDA00B5C943404200D10131C0
:1038A00000F038F8C943404200D10131DB435242B5
:1038B00000D1013300BD002AEBD1002801D100293D
:1038C00005D00020C90FC90701D1C043410800B588
:1038D00003F082FF0022002300BD00B500290ADBAF
:1038E000DB43524200D1013300F014F8C943404297
:1038F00000D1013100BDC943404200D10131DB4359
:10390000524200D1013300F005F8DB43524200D1AE
:10391000013300BD002923D1002B18D1002A0CD07F
:10392000BC460D4F38667A6600210023FFE7FFE7AB
:10393000FFE77A6F386F67467047002801D0074865
:10394000010000B503F048FF0022002300BD020083
:103950000B00002000217047000000D0FFFFFFFF98
:10396000002B00D0BFE0130C28D1002AE7D080B490
:10397000114F39667A66FFE7FFE730B4040C7B6FBE
:10398000396F1B0423433B667A66FFE7FFE7FFE7D7
:10399000C04684B27B6F3D6F1B0423433B667A664F
:1039A000FFE7FFE7C04600232C042D0C7A6F386F29
:1039B00000196941B0BC7047000000D0F0B59446D2
:1039C0000025140E01D112020835140F01D1120185
:1039D0000435940F01D192000235D40F01D1520069
:1039E0000135D40B0134254F7C66254C3C660E0C0A
:1039F00093B2FFE7FFE7FFE73C6F6643360C7703C0
:103A0000BE467343DF0B5B04C01AB941130C73430A
:103A1000DB18C91ACE086643360CB64493B273431A
:103A20001F0F1B01C01AB941130C73431F0B1B0559
:103A3000C01AB941860D8F023E436643360C092DEC
:103A400024DB520A7243801A7703460A6643360C17
:103A500016235B1BDE40DF40BF1964466643821BB2
:103A60007046043506330100D940A840C01900D380
:103A70000131A24206D20023F0BD0000000000D0B8
:103A8000FFFFFFFF121B0130F3D3F1E709277F1B74
:103A9000FE406446A2B27243801A00D20139220C61
:103AA0007243130C1204821A99410B0070460435BC
:103AB00013370100F940A840801900D30131002BD1
:103AC00002D1A2420AD2F0BD013000D30131121B53
:103AD000FAD2013BF8D1A24200D2F0BD013000D3AE
:103AE0000131121BF7E7F0B51C0C00D080E00CB4DC
:103AF00000251C0A04D11B02160E3343120208359E
:103B00001C0B04D11B01160F3343120104359C0B0F
:103B100004D19B00960F334392000235DC0B02D197
:103B200092185B4101351C00971864410134464FDF
:103B30007C66464C3C660E0CFFE7FFE7FFE7C0469D
:103B40003C6F6643360C7703BE4697B27743C01B83
:103B500000D20139C01B00D201399FB27743C91B83
:103B6000C91B170C77437E04FF0B801BB941CE089D
:103B70006643360C0C2D33DBB644120B1F053A435B
:103B80001B0B97B27743C01B00D201399FB277431A
:103B9000C91B170C77433E043F0C801BB941860DAF
:103BA0008F023E43664329277F1BFE400C3D77462C
:103BB000AF40BF1930BCA2B2ABB272437343801A9C
:103BC0009941220C7243130C1204801A994102008D
:103BD0000B000137001BA941F9D2781E0021F0BD6E
:103BE0000C277F1BFE4077467F0BAF40FF19E0E7B5
:103BF00000245D1C07D0144F7D663966FFE7FFE7A0
:103C0000FFE7FFE73C6F95B29EB265436643401BFA
:103C1000B141150C1E0C6543664336042F0C3E4320
:103C20002D04401BB141994204D202000B00200038
:103C30000021F0BD01D19042F7D3801A994101349F
:103C40009942F2D3F6E70000000000D0FFFFFFFF2B
:103C500048404140484018B41B4B5B68FC46019308
:103C600008BD04DFAF3E001018B4174B1B68FC46BC
:103C7000019308BD00DFB93E00109446134A926FCD
:103C8000920809D2624618B40F4BDB68FC460193D8
:103C900008BD0CDF714100100C4AF0B5146E556E72
:103CA000576F166F6246FFF7EEFF084A14665566B7
:103CB00057671667F0BD18B4034B9B68FC46019329
:103CC00008BD08DF15400010401D0020000000D096
:103CD000FFB550404240504059404B40594000E0F1
:103CE000FFB5154F4C00640D03D0BC4204D10C034A
:103CF00014D80020090D09055C00640D03D0BC42F6
:103D000004D11C030AD800221B0D1B0501264B40C1
:103D100009D44B4003D58B4200D18242FFBD99426A
:103D2000FCD19042FFBD0B43DB1803431343F5D096
:103D3000C9434918FFBD0000FF07000000B5FFF7A9
:103D4000CFFF804100BDC04600B5FFF7C1FF01D9DC
:103D5000002000BD012000BD00B5FFF7B9FF804184
:103D600000BD012040054A00121804D85A0012185C
:103D700001D80020704701207047002070470000E4
:103D80000021002805D17047C1174840401AFAD0D9
:103D9000C90713B5064B1B6898470CBC441CA240CE
:103DA0001005120B0349091B09051943114310BDE6
:103DB000401E00201F04000010B54C00620D80233F
:103DC000D218DB00D21A5B057E2A10DD9E3A13DA88
:103DD000CC170903490819435242D1406400013409
:103DE0001532202A05DAD0400843604310BD002078
:103DF00010BD0846604310BDC80FC018013810BD83
:103E000018B4044B5B6AFC46019308BD24DF2143D0
:103E100000100000401D0020132370B51C78012CF9
:103E200015D010DD1048FFF789FC104D01008022ED
:103E3000280000F0A1FB022C13D00D48FFF776FC00
:103E40000C4B186070BD0C4A084DAA64F5E7074D8D
:103E5000094A29002B00803104C38B42FCD1AA649B
:103E6000EBE7054AAA64E8E753440000401D002040
:103E70004C330000401E00207D3E001007B5604618
:103E800001880A0A0230DF2AFAD1C9B2820804D3B3
:103E9000028840880004104300E00068014A505046
:103EA000039007BD401D00200FB403BC0CBCF0B54F
:103EB0000124E407634000E0F0B50C0DCF0F661E4F
:103EC0003605891B640503D3C943404200D3013141
:103ED000640D03D0661CF60A07D0E41B00207F00A7
:103EE000791C89078912803C24031D0DDF0F6E1E8B
:103EF00036059B1B6D0503D3DB43524200D30133D0
:103F00006D0D03D06E1CF60A07D0ED1B00227F005A
:103F10007B1C9B079B12803D2D032F1B661B58D4D7
:103F2000A446202E46DA20371400BC401D00BD40B8
:103F3000F24033412A4380185941CB0F05D0C94381
:103F4000C043002264425041514162464D0D28D188
:103F50000D0D07D100281FD0241940414941013AD5
:103F60000D0DF9D0640006D3013000D30131002CCF
:103F700001D140084000013A0BD4941CE40A04D15A
:103F800012051144DB071944F0BDD907204B194332
:103F900000E0D9070020F0BD0029DDD1002CDBD1E5
:103FA000F0BD0132C6074008CD0728434908002E5E
:103FB000E1D0D9E73C2E29DA203E40371400BC403E
:103FC00000D00124F24014431A00BB401C43D31715
:103FD000ACE7AC46202F08DA20360400B4400D00D0
:103FE000B540F84039412843A5E73C2F0CDA203F83
:103FF00040360400B44000D00124F84004430800D7
:10400000B1400C43C117EAE710001900002494E7FF
:104010000000F07FF0B50C0D661E3605891BE60A20
:104020006405640D02D0651CED0A04D00020012156
:104030000905803C2403A4461C0D671E3F05DB1BBD
:10404000E70A6405640D02D0651CED0A04D0002265
:1040500001231B05803C24037740644497B484B259
:1040600096B27443070C7E43150C6F4380B26843CD
:10407000361802D3012000043F183004350C001913
:104080007D41844688B29AB250430C0C62431F0CA7
:104090007C438EB27E43921902D301263604A419C2
:1040A0001604170C3618674101BC81B29AB251430D
:1040B000040C62431B0C5C4380B25843121802D3B9
:1040C0000120000424181004130C401863412D181B
:1040D0005E410020474106BC88B293B258430C0CA5
:1040E0006343120C544389B251435B1802D301213C
:1040F0000904641819041A0C091862416D18564114
:104100000020474118BCF902720D1143F0026A0DFC
:104110001043ED020A0D03D16D1940414941013BA5
:10412000124E9B1B7600B3420ED26D0007D30130B6
:10413000002671416646354301D1400840001B0509
:10414000C918E4072144F0BD0BDA013306D1013070
:1041500004D101314F0D01D04908F2E7E1070020F9
:10416000F0BD013631050020EBE70000FF03000041
:10417000F0B51C0D671E3F05DB1BE70A6405640DE7
:1041800002D0661CF60A04D0002201231B05803CE5
:104190002403D0252D060026F6432E661E096E66E2
:1041A000CE0FF619B44649004F0D02D07E1CF60A18
:1041B00003D000200021403F3F033E1BB600B44423
:1041C000013F7F05C91B49082E6F013676089C0206
:1041D000950D25437543ED137543AD1301356D10F2
:1041E000F603761B0CB4CC02450D2C43A2B2B3B23D
:1041F0005A43270C7B43350C6F43A4B26C431B1905
:1042000002D3012424043F191C041D0CA4187D4171
:1042100024196D41009A91B2ACB26143170C7C43F2
:104220002B0C5F4392B25A43A41802D3012212040A
:10423000BF182204230C52187B41019C6C431B19AC
:10424000520ED9010A434401A01A81B2B2B25143BD
:1042500003145A43360C734387B27743D617D219E7
:1042600000277E4136049B191704160C7F185E4107
:104270007316ED18F301002680337541A90F06D19E
:104280006400690AE8055B0A184309D22FE004229A
:10429000944480337541A90AA8059B0A184326D384
:1042A000404149412404009A019B0D005543641B81
:1042B0004343E41A95B286B27543170C7E43030C50
:1042C0005F4392B25A43B61802D301221204BF18B8
:1042D0003204330C52197B4152429C41002C02D4CF
:1042E0000022013051414008CA071043490802B07A
:1042F0006246D7079210084BD218084B9A4203D255
:1043000012058918C919F0BD0020002A01DC390006
:10431000F0BD01331905F5E7FD030000FE070000BD
:10432000002200B5203200F004F8080000BD0000B3
:1043300000220B150AD410B5944600F031F814147D
:10434000013400DA0021CB17144C20470020002153
:1043500070476244343A0CD40C2A07DA04009140C6
:10436000904052422032D440214310BDD843D9431B
:1043700010BD203207D40C469440524220321141E5
:10438000D040204310BD0800C917203203D4524248
:104390002032104110BD1800190010BD5343001009
:1043A0000A0DCC0F531E1B05C91A520503D3C9436E
:1043B000404200D30131520D03D0531CDB0A07D019
:1043C000121B00206400611C89078912803A1203C5
:1043D000014BD21A70470000FF03000051434343D2
:1043E000C9188C46110C83B24B4310B4040C6143C2
:1043F00092B280B2504362431C041B0C001910BCE3
:1044000059411304120CC018514161447047000017
:104410004840414048400E4B5B6818470C4B1B68B6
:1044200018470C4A936F9B0802D2094BDB68184768
:10443000F0B5146E556E576F166FFFF7F6FF054A0D
:104440001466556657671667F0BD014B9B681847A1
:10445000441E0020000000D0C10FC90700D5404213
:10446000002817D0F44603B40B4B1B68984706BCD2
:1044700081409E384042803107D20B0607D0490068
:10448000490AC0051043084360470130F8E7490A6C
:104490008902F5E770470000401E0020014B5B6A6F
:1044A00018470000441E0020132310B510481C7844
:1044B000FFF744F90100012C0AD003DD80220D48EA
:1044C00000F05AF80C48FFF731F90C4B186010BD9A
:1044D000084C5422200000F04FF823002100084A25
:1044E0005433803104C38B42FCD12262E261E9E79C
:1044F00053460000441E00204C330000401E0020A4
:104500000545001007B5604601880A0A0230DF2A17
:10451000FAD1C9B2820804D302884088000410434B
:1045200000E00068014A5050039007BD441E00207F
:1045300010B5040002F046FC002804D0034B041917
:104540009C4200D810BD0248FDF7C4FE00000420C4
:10455000847A001010B502F03FFC10BD0148042120
:10456000014B1847C00A00204D370010014B1B6853
:1045700018470000C00A0020014B5B681847000084
:10458000C00A0020030010B5080011001B689847FE
:1045900010BDC046F0B5C64600B5437D07000D000E
:1045A0001600002B38D0002A2EDD00216A1E90460E
:1045B0006A5C037D4C1C00200A2A0CD0A64216D04F
:1045C00043461B5D21000D3B5A4253416A5CDBB2FE
:1045D0004C1C0A2AF2D1002BF0D1814217DC0221B7
:1045E00010483B689847A64207D02000E8E786427B
:1045F00003DD311A3B6828189847AD19013D2B7827
:104600000D3B5A4253413B7580BCB846F0BD091A78
:104610003B6828189847E2E703681100280098478C
:10462000F2E7C046007F0010F8B50F4B05001C688C
:10463000002C15D00D4E071D02E02469002C0FD070
:104640002368002BF9D03368002B01D0A342F4D1AA
:10465000200039002A68FFF79DFF2469002CEFD164
:1046600000232B60F8BDC046E8180020F418002095
:104670000B6870B505000C00802B04D05A1C22601A
:10468000E418257170BD0800FFF7CEFF2368F5E739
:10469000F0B54546DE464E465746E0B585B09146F4
:1046A0001C0080460D00FDF7BDF90023264A1218B4
:1046B0004B41802109068B4202D30122234B5242F7
:1046C000234908008A4603F0B7F801906B1C03D118
:1046D000404602F0FBFE0500002C2ED01D4F1E4B65
:1046E0001C68002C1FD00A231C4E9B4602E0246944
:1046F000002C18D02368002BF9D03368002B01D090
:104700009C42F4D12A0041462000B8474B46002B7A
:10471000EDD05A4602AB2000DA71D91D0122B8470C
:104720002469002CE6D1019B002B08D105B0F0BC18
:10473000BB46B246A946A046F0BD094FCFE750465A
:1047400003F042F8F2E7C04640420F00FFFFFF7F50
:104750005810002085450010E8180020F4180020AB
:104760009545001010B582B06B4604000022D81D9C
:10477000012100230470FFF78BFF200002B010BD61
:1047800070B5040002F0A2FE002301000500012222
:104790002000FFF77DFF064B1C68002C06D06368E5
:1047A000002B00D098472469002CF8D1280070BD58
:1047B000E81800200A4A1368002B05D10CE01A0003
:1047C0001B691032002B07D09842F8D1002902D182
:1047D00003691360016170470029FCD01060FAE79B
:1047E000E8180020F0B5A3B004000D00FDF71AF999
:1047F0000023194A12184B41802109068B4202D32B
:104800000122164B5242164E300003F015F80023D9
:104810000700019322002B00124801A9FEF756FF62
:10482000019B0500002B02D001A8FFF7FDFE0E4BF7
:104830001C68002C06D06368002B00D098472469C0
:10484000002CF8D1002F02D1280023B0F0BD300099
:1048500002F0BAFFF8E7C04640420F00FFFFFF7FBB
:104860005810002071460010E81800200FB400B561
:1048700083B004A901C90191FFF7B4FF03B008BCDC
:1048800004B0184710B500F0D9F910BD7047C04604
:104890000022014B1A707047761F00204B790020D0
:1048A000FF2B0BD18B79002B08D1CB79012B05D1B4
:1048B000082A03D9024B8A7809301A707047C0461B
:1048C000761F00200120704770B5012901D001201A
:1048D00070BD13495379107909781B0203430020F6
:1048E0009942F5D15378012B08D0022BF0D100204A
:1048F00064220021FDF7DEFB0120E9E79478D278FD
:10490000050012021443D20502D5620A93401D002D
:104910000448FEF70BFF7F21030021402800984741
:10492000761F0020554200000123037000487047A5
:10493000047F00104B780A781B0213438A7810B565
:1049400012041A43CB781B0613439622D2009342DB
:1049500000D010BD0348FEF7E9FE00210300080067
:104960009847C04655420000024B1860024B196040
:104970007047C0464C1800205018002010B5024B5C
:104980001878FCF7D1F910BD771F002070B504002E
:1049900000200E0001F00EFA002836D0002001F0B1
:1049A00021FA002831D0FDF73DF80023184A1218EB
:1049B0004B41802109068B4216D2164D280002F089
:1049C0003BFF002821D0002001F0F4F900280FD18E
:1049D00001200021404200F083FC032464422800AF
:1049E00002F0F2FE200070BD01220B4B5242E4E7C0
:1049F000002001F0F7F90028EAD021003200002061
:104A000001F0FCF9041EEAD1E7E703246442E9E778
:104A100040420F00481F0020FFFFFF7FF8B5DE4631
:104A2000574680B505000C00FCF7FCFF0023374A11
:104A300012184B41802109068B4202D30122344BCC
:104A40005242344908008A4602F0F6FE002803D19B
:104A5000C0BCBB46B246F8BD002001F0ABF900284F
:104A60004AD00026002C43DD2B4B9B4614E0A919AD
:104A7000002001F013FA070001200021404200F05D
:104A80002FFC002001F0CEF9FCF7CCFF224BF619E9
:104A900018605960B4422BDD002001F019FAA71B01
:104AA0000200B84200DD3A00002AE0D101200021D6
:104AB000404200F015FC002001F0B4F9002001F0A4
:104AC00079F9002814D0002001F002FA0028E1D181
:104AD000FCF7A8FF5B460F001A685B68002184465C
:104AE0000E4812184B419F4202D8D3D19445D1D9D8
:104AF000504602F069FEABE700200021064B18602B
:104B00005960504602F060FEA2E7C04640420F00E6
:104B1000FFFFFF7F481F00208011002020A1070019
:104B200010B5244C84B00021200002F075FE00284E
:104B30001CD1214B1A68002A16D0EFF3108172B6EF
:104B400010680028FCD0BFF35F8F01241B48596018
:104B500002781B68D2B20470BFF35F8F0020186028
:104B600081F31088002A0AD004B010BD0120002172
:104B7000404200F0B5FB200002F026FEF4E7FCF70F
:104B8000B9FD0400FCF74EFFFA2200239200121830
:104B90004B41802109068B4202D30122084B52422D
:104BA0000121029100210191064920000091FCF7AA
:104BB000A5FDD9E7481F0020201D0020781F0020F8
:104BC000FFFFFF7FC94B0010114B70B51A68002A18
:104BD0001AD0EFF3108172B610680028FCD0BFF332
:104BE0005F8F00200B4A596010701B68BFF35F8F06
:104BF000186081F3108800240025074B1878FCF713
:104C000093F82900200070BDFA240025A400F4E7E1
:104C1000201D0020781F0020771F0020054B10B5B5
:104C20001868002804D0044B0022196800F022FF05
:104C300010BDC0464C18002050180020D02310B5DD
:104C40001B0684B01C68FCF755FDFCF7D1FDA042A3
:104C500002D0002004B010BD274B1B7801F0E2FA0F
:104C60002648FCF70FFB0120FCF7EEFAFF23244C4B
:104C7000244920701840FCF77DF820780121FCF7CA
:104C800041F80520FCF758F8002827D1FCF732FD41
:104C90000400FCF7C7FEFA220023920012184B41D1
:104CA000802109068B4202D30122174B5242012177
:104CB000029100210191154920000091FCF71EFD91
:104CC0000822040000211248FFF750FC002CC0DB32
:104CD00010480121FFF76EFD0120BBE700220E49BD
:104CE0000520FCF771F8FBF7EFFF094B01001800F6
:104CF000FCF7F2FAECE7C04670810010481F002074
:104D0000771F0020214B0010FFFFFF7FC94B0010D1
:104D1000201D0020D00A00207D4900100048704767
:104D2000947F001000487047407F001010B50400C9
:104D300017480378002B20D0002C06D1154B1648BD
:104D40004380063BFF3B038010BD052C19D8134B55
:104D5000A400E05812490123013804E001330A801D
:104D60000231142B0FD0C25C002AF7D1C022DBB273
:104D70005B00920008481343E5E7112100F01AF8A0
:104D8000DAE70020E0E7CA2303489B00DBE7C046E0
:104D9000601F002009040000C0180020287F0010B8
:104DA000C218002010B5024800F02CF810BDC04613
:104DB000381D0020F0B54E1E01291BD0104B0022DB
:104DC0009C4601270F2461465308CB5C3900914370
:104DD00089000B4125001D4029002B003731092D8A
:104DE00001DC3033190081540132B24205D0102A5F
:104DF000E9D1103000230370F0BD8018FAE7C046F7
:104E0000381D002010B588B004000D22002168462E
:104E1000FFF7ACFB0D22002104A8FFF7A7FB4B23F3
:104E20006A466846137004A90D2202F0C5FC1521DC
:104E3000082220006944FFF79FFB08B010BDC04660
:104E400010B501210520FBF75DFF10BD10B5002254
:104E50000021024800F058F910BDC0461C1900207E
:104E60008022024B5202DA647047C0460020115083
:104E7000F0B5C64600B5060000F020F90C231B4D26
:104E8000FF22AB6705201A49FBF79EFF4023984697
:104E9000184C402200212000FFF768FB4346012701
:104EA000238321210023144A6770A2601360635496
:104EB0005F31618441462187053963540F4A1049A7
:104EC0006360E260A1620B606362E26202F094FCE4
:104ED00080239B052F64EB6490230A4A3000EA503C
:104EE000FFF7BEFF80BCB846F0BDC04600001150C1
:104EF00049040020FC1800208400105000011050CC
:104F00008000105010D001000B785B0602D14B7866
:104F1000052B00D070478A78014B1A60FAE7C0462B
:104F200000001150F0B5C64600B5CC7888780A79F3
:104F30004B797F21A40701401B02C50913434F0091
:104F4000A20F1400324E7A195201B218907001204B
:104F50006840507000205B055B0DD0701383D476E1
:104F60008046CA00012D33D02A4884468801624415
:104F70008446B4446046826040461060002933D0C5
:104F8000254AC90090466246414451603F223F3362
:104F90009343022C00D15B0020487A19016852012A
:104FA000B218D1601E4ACB18036051405A4080238A
:104FB00088465B019A4228D84346A4061C438023B6
:104FC0007F197F01F61972681B062343136011E0F5
:104FD00014488446880162448446B4446046826230
:104FE00040461060002909D100236D0175196B60DE
:104FF0000D4BEB60012080BCB846F0BD084AC900EB
:105000009046624641445162C0E7FDF77BF9D3E721
:10501000FC1800208400105004001050041D0020D3
:1050200000001050800010500001105010B502F028
:10503000E3FB10BD10B57F200C0020404000E409C8
:10504000110000191A00034B4001C01800F05CF871
:10505000012010BDFC1800207F23180010B5084067
:10506000CA090B4203D107497D3B9B1A8B6640005E
:1050700080188022044B40010021C018120102F068
:10508000EBFB10BD00201150FC1800207F22130004
:1050900010B50B400A4200D110BDC9095B005B1876
:1050A00004485B01C018002300220349C37002F0CA
:1050B000D3FBF1E7FC180020FFF7FFFF80220D4B28
:1050C000520410B51A600C4B0C491A6010008B6822
:1050D0009843FBD10A4C9C2200212000FFF746FA9E
:1050E0008022002152010748FFF740FA0923636735
:1050F00010BDC04600E0004000F0004000C000408D
:105100000000115000001050002310B5C38201337D
:10511000828283760161040002F0A6FB002804D09D
:1051200080219023074A8902D150200002F05CFBC5
:10513000002802D00123237710BD200002F084FB59
:10514000FAE7C04600201150F0B5C6461B4A0500DC
:105150000024904600B51A4E1A4F3378002F1BD00A
:105160004246A3421DD82800904701343378E4B268
:10517000A342F3D2144C532200212000FFF7F6F98A
:105180001022FF21E01CFFF7F1F920002022FF216F
:105190001330FFF7EBF901E0002C0CD080BCB846CF
:1051A000F0BD0A4A630012681B19DB00D318002BFC
:1051B000F4D05A68D7E7014AD5E7C046655F0010CA
:1051C000711F00202949001020160020F81200202D
:1051D000024B5878431E9841C0B2704720160020F9
:1051E000024B18784007C00F7047C04620160020B9
:1051F000034B1878FF38431E9841C0B27047C04631
:105200000C0B0020F8B5CE46474680B52A4E050067
:105210003378FF2B01D001203DE0532200212748A5
:10522000FFF7A4F9264C2000FCF72CF8254B1C6056
:10523000254C2000143CFCF741F8200001F04CFC08
:10524000224B234F1C60234B9846002F1ED0180082
:10525000FFF76AFB204B186043461B781F4A002467
:105260009146002F14D04A46A3421AD8904743468D
:1052700001341B78E4B2A342F3D228003570FFF763
:10528000F7FD2800FFF7DCFD012004E01B78E5E7CF
:10529000002C04D00020C0BCB946B046F8BD0F4A6F
:1052A000E4E70D4A630012681B19DB00D318002BDA
:1052B000F0D01A68DAE7C0460C0B00202016002058
:1052C000D815002074160020040B0020781600204A
:1052D00029490010711F0020F8120020E95E00101B
:1052E000F0B5DE4657464E464546E0B58FB000F075
:1052F0009FFF002800D1BBE0BF4BC04F9B46C04E74
:105300000BAC009735686A69EFF3108172B61368C9
:10531000002BFCD0BFF35F8FA9612800210001F0B2
:1053200027FB6A69AB69BFF35F8F0021116083F3CC
:105330001088002800D19BE06378082BE2D8009AFF
:105340009B00D3589F466368002BDBD0A06898472A
:10535000D8E77F222179A84B0A405500C8095B197C
:105360001B18180001273030C578BD43C570C578BB
:105370000337BD43C570002A00D18CE0A148DB7C17
:10538000002806D0A04A1278934200D289E09B1AE6
:10539000DBB2002B6CD19D4DA36862792078A847C1
:1053A000B0E70122944D01202B78042113432B7088
:1053B0003323EA5C8243EA54EA5C8A43EA540133C9
:1053C000EA5C8243EA54EA5C00208A43EA54237888
:1053D0009A4600F05DFC602223791A40602A51D081
:1053E000402A4CD0DB06DB0E012B6FD0022B00D104
:1053F0009DE0002B46D1202A00D1D1E0002A41D1E6
:105400006379092B3ED8824A9B00D3589F465B465E
:105410001B78DB0700D475E77E4B002B00D171E7CA
:1054200000E000BF6EE75B461B78DB0700D469E74E
:10543000794B002B00D165E75B4618780007C00F59
:1054400000E000BF5EE72078FFF77EFE00F016FC6C
:10545000724B002B00D155E700E000BF52E72078E7
:10546000FFF772FE00F00AFC634B22799A7049E75D
:105470000FB0F0BCBB46B246A946A046F0BD684896
:10548000002818D120780021FFF7E6FD8021207840
:10549000FFF7E2FD36E7A3686279207800F00CFCA4
:1054A00030E7604A58001268C318DB00D318002B9D
:1054B000DED01D6970E700F0EBFB012150460CAA1D
:1054C00000E000BF002800D01CE7DBE7237A0F2BA9
:1054D000D8D84C48EB18DB78002805D04A4A127817
:1054E00093427ED39B1ADBB2002BCBD14E484F4D5B
:1054F00000F0CEFB01215046EB680CAA984700282B
:1055000000D0FFE66022150023791D401A42B9D170
:1055100063790A3B012BB5D800F0BAFB63790A2BFB
:1055200000D178E150460CA900F05CFBEAE670235C
:10553000217A0B42A6D1C80984460F330B405B0089
:10554000E8186044C07C80462E48002807D02E48CA
:10555000007880456CD34746381AC0B28046404632
:1055600000283AD1002A00D00FE1304A90460227A5
:1055700062799146BA43012A00D10AE14A46002ADB
:1055800080D1EB1863443033DB780AAA9B07DB0F2A
:1055900002321380504602230CA900F039FBB1E619
:1055A000237A0F2B00D96DE71648EB18DB7800281B
:1055B00006D0154A1278934200D211E19B1ADBB251
:1055C000002B00D05EE71848184D00F061FB012168
:1055D0005046EB680CAA984774E79046002AC6D05C
:1055E00050E7104A59001568CB18DB00ED18002D64
:1055F00000D147E7E8687BE720160020A87F00106D
:105600007816002029490010711F00202561001024
:10561000CC7F00100000000000000000000000002F
:1056200000000000F81200204160001034800010DB
:1056300047467F00B946C1444F46FF00B946C648B9
:10564000006848448046002A91D0002800D119E71C
:10565000C06800F01DFB434601215046DB680CAAE0
:1056600098472FE7A7796B789F4206D06B78002B7D
:1056700000D043E1002F00D0E4E050460CA96F7049
:1056800000F0B0FA3EE6E388012B00D0FAE60822EB
:105690002B78504693430CA92B7000F0A3FA31E607
:1056A000022029780AAB9A1C8B068908DB0F01407F
:1056B0000B436EE76B780AAA02321370504601233F
:1056C0000CA900F0A5FA1DE6E3881A0AD8B20F2A41
:1056D00000D9D7E6A1499300CB589F460CA800F00B
:1056E000DDFA5046A179FFF7B1FB02222B78134374
:1056F0002B7007E6E388012B00D0C3E608222B7845
:10570000504613430CA92B7000F06CFAFAE5944B49
:10571000002B00D1B6E600E000BF021E00D1B1E6CA
:10572000D37891781B020B4350460CA900F070FA15
:10573000C8E68C4B002B00D1A4E600E000BF021E9F
:1057400000D19FE6504613780CA900F061FAB9E643
:105750002189FFF7EBFA021EF4D193E6022A00D169
:10576000E5E0814B002B00D18CE600E000BF020099
:10577000002A00D186E6D3E7FFF7D0FA1223020011
:105780000CA9504600F044FA9CE6784B78489846BD
:105790005FE7E288002A0DD1764AEB1810784A4676
:1057A0006344012A27D03022914699444B46DB7846
:1057B0009B0739D54346002B00D1A3E5D86800F0FC
:1057C00067FA43460121DB680CAA5046984700203F
:1057D00000F05EFA3423EB5CDB0700D592E5A1E62E
:1057E0005D4A59001568CB18DB00ED18002D00D17B
:1057F00048E6E868E9E630330193DB789B07D9D5C2
:10580000FFF744FC4946019AD378BB43D370D37861
:105810008B43D370CEE70AAB9A1C504601230CA9E8
:10582000157000F0F5F96DE5FFF716FC4B46022206
:10583000DB7813434A46D370D378012213434A4698
:10584000D370B7E7781EC0B2FFF76CFA002800D11A
:1058500018E643780493022B00D013E60121C279A5
:10586000A846931152110B400A4012015B011343E9
:105870002A782F318A4313432B7009239946814498
:105880008278C37807974F46B1461B021343C3186B
:105890000193394B0693019BBB424CD97B78012283
:1058A0000B2B02D13B78FA78FF187B78042B23D19D
:1058B0000025019B0992DB1B9BB202932F4B1978A9
:1058C00003932F4B0893294B0593089B002B20D063
:1058D000069B059EA94221D839005046029A984756
:1058E0008446082802D9029A82422ED2039B0135AF
:1058F0001978EDB2A942E8D24E46C3E55046FFF70B
:1059000095FBAB7850469846FFF71EFC4346AB70BC
:10591000B0E6002DF0D1184B144EDDE718230E4AE7
:105920006B431668F618002EE6D0B368D4E7FFF78D
:10593000F9F902001CE7134B4E464546079F002B22
:1059400000D19AE600E000BF97E6099A012A38D014
:105950000021464622E0C046F8120020F47F0010E5
:105960000000000000000000000000003480001073
:10597000416000100C0B0020915F0010711F00208F
:105980002949001000000000BB78CB18DBB2F318E7
:10599000D878FF28B0D10131DD70C9B29142F3D17E
:1059A000B04666462B0039003200094800F0C6FCBC
:1059B000B446039B67441B78AB4200D36BE74E466B
:1059C00060E5044BB1689942C2D1049AC0E7C04671
:1059D00033160020915F0010F8B557464E46DE465C
:1059E00045460C00E0B516001F00002A3CD01F4BB6
:1059F00000259A46702399461D4B9B4617E05B464F
:105A00002000997800F05CFC00281FD0210040465F
:105A1000FFF788FA002819D0A378DA09012A1CD0E8
:105A20000A9A013513702378E418B5421CDA6378BA
:105A3000052B0BD1E3789B079B0FBB4206D1534646
:105A40004A461B789846A3781A42D8D00020F0BC6A
:105A5000BB46B246A946A046F8BD0B9A0135137065
:105A60002378E418B542E2DB0120F0E70C0B0020BC
:105A700020160020802310B51B0184B001930E4B2B
:105A800002901C6803916269EFF3108372B611688B
:105A90000029FCD0BFF35F8FA361200001A900F0B3
:105AA000BDFF6269A369BFF35F8F0021116083F3BB
:105AB000108804B010BDC04678160020702270B562
:105AC000094B0C001D788B781A4201D0002070BD64
:105AD000064B2000997800F0F3FB0028F6D0210057
